{
  "_format": "hh-sol-artifact-1",
  "contractName": "Library",
  "sourceName": "contracts/Library.sol",
  "abi": [
    {
      "inputs": [
        {
          "internalType": "string",
          "name": "name",
          "type": "string"
        },
        {
          "internalType": "uint256",
          "name": "year",
          "type": "uint256"
        },
        {
          "internalType": "string",
          "name": "author",
          "type": "string"
        },
        {
          "internalType": "string",
          "name": "petnumber",
          "type": "string"
        },
        {
          "internalType": "string",
          "name": "breed",
          "type": "string"
        },
        {
          "internalType": "string",
          "name": "sex",
          "type": "string"
        },
        {
          "internalType": "string",
          "name": "dateofbirth",
          "type": "string"
        },
        {
          "internalType": "string",
          "name": "color",
          "type": "string"
        },
        {
          "internalType": "address",
          "name": "owner",
          "type": "address"
        },
        {
          "internalType": "bool",
          "name": "finished",
          "type": "bool"
        }
      ],
      "name": "addBook",
      "outputs": [],
      "stateMutability": "nonpayable",
      "type": "function"
    },
    {
      "anonymous": false,
      "inputs": [
        {
          "indexed": false,
          "internalType": "address",
          "name": "recipient",
          "type": "address"
        },
        {
          "indexed": false,
          "internalType": "uint256",
          "name": "bookId",
          "type": "uint256"
        }
      ],
      "name": "AddBook",
      "type": "event"
    },
    {
      "inputs": [
        {
          "internalType": "uint256",
          "name": "bookId",
          "type": "uint256"
        },
        {
          "internalType": "bool",
          "name": "finished",
          "type": "bool"
        }
      ],
      "name": "setFinished",
      "outputs": [],
      "stateMutability": "nonpayable",
      "type": "function"
    },
    {
      "anonymous": false,
      "inputs": [
        {
          "indexed": false,
          "internalType": "uint256",
          "name": "bookId",
          "type": "uint256"
        },
        {
          "indexed": false,
          "internalType": "bool",
          "name": "finished",
          "type": "bool"
        }
      ],
      "name": "SetFinished",
      "type": "event"
    },
    {
      "inputs": [
        {
          "internalType": "uint256",
          "name": "bookId",
          "type": "uint256"
        },
        {
          "internalType": "address",
          "name": "newOwner",
          "type": "address"
        }
      ],
      "name": "transferOwner",
      "outputs": [],
      "stateMutability": "nonpayable",
      "type": "function"
    },
    {
      "anonymous": false,
      "inputs": [
        {
          "indexed": false,
          "internalType": "uint256",
          "name": "bookId",
          "type": "uint256"
        },
        {
          "indexed": false,
          "internalType": "address",
          "name": "previousOwner",
          "type": "address"
        },
        {
          "indexed": false,
          "internalType": "address",
          "name": "newOwner",
          "type": "address"
        }
      ],
      "name": "TransferOwner",
      "type": "event"
    },
    {
      "inputs": [],
      "name": "getFinishedBooks",
      "outputs": [
        {
          "components": [
            {
              "internalType": "uint256",
              "name": "id",
              "type": "uint256"
            },
            {
              "internalType": "string",
              "name": "name",
              "type": "string"
            },
            {
              "internalType": "uint256",
              "name": "year",
              "type": "uint256"
            },
            {
              "internalType": "string",
              "name": "author",
              "type": "string"
            },
            {
              "internalType": "string",
              "name": "petnumber",
              "type": "string"
            },
            {
              "internalType": "string",
              "name": "breed",
              "type": "string"
            },
            {
              "internalType": "string",
              "name": "sex",
              "type": "string"
            },
            {
              "internalType": "string",
              "name": "dateofbirth",
              "type": "string"
            },
            {
              "internalType": "string",
              "name": "color",
              "type": "string"
            },
            {
              "internalType": "address",
              "name": "owner",
              "type": "address"
            },
            {
              "internalType": "bool",
              "name": "finished",
              "type": "bool"
            }
          ],
          "internalType": "struct Library.Book[]",
          "name": "",
          "type": "tuple[]"
        }
      ],
      "stateMutability": "view",
      "type": "function"
    },
    {
      "inputs": [],
      "name": "getUnfinishedBooks",
      "outputs": [
        {
          "components": [
            {
              "internalType": "uint256",
              "name": "id",
              "type": "uint256"
            },
            {
              "internalType": "string",
              "name": "name",
              "type": "string"
            },
            {
              "internalType": "uint256",
              "name": "year",
              "type": "uint256"
            },
            {
              "internalType": "string",
              "name": "author",
              "type": "string"
            },
            {
              "internalType": "string",
              "name": "petnumber",
              "type": "string"
            },
            {
              "internalType": "string",
              "name": "breed",
              "type": "string"
            },
            {
              "internalType": "string",
              "name": "sex",
              "type": "string"
            },
            {
              "internalType": "string",
              "name": "dateofbirth",
              "type": "string"
            },
            {
              "internalType": "string",
              "name": "color",
              "type": "string"
            },
            {
              "internalType": "address",
              "name": "owner",
              "type": "address"
            },
            {
              "internalType": "bool",
              "name": "finished",
              "type": "bool"
            }
          ],
          "internalType": "struct Library.Book[]",
          "name": "",
          "type": "tuple[]"
        }
      ],
      "stateMutability": "view",
      "type": "function"
    }
  ],
  "bytecode": "608060405234801561001057600080fd5b50611463806100206000396000f3fe608060405234801561001057600080fd5b506004361061004c5760003560e01c80632d667aae146100515780636aa835a81461006d57806376d9e5a014610089578063f2bc01ff146100a7575b600080fd5b61006b60048036038101906100669190610c9d565b6100c5565b005b61008760048036038101906100829190610e5c565b610300565b005b6100916103e2565b60405161009e91906110f2565b60405180910390f35b6100af6103f3565b6040516100bc91906110f2565b60405180910390f35b60008080549050905060006040518061016001604052808381526020018d81526020018c81526020018b81526020018a815260200189815260200188815260200187815260200186815260200185815260200184151581525090806001815401808255809150506001900390600052602060002090600b020160009091909190915060008201518160000155602082015181600101908051906020019061016d929190610b04565b50604082015181600201556060820151816003019080519060200190610194929190610b04565b5060808201518160040190805190602001906101b1929190610b04565b5060a08201518160050190805190602001906101ce929190610b04565b5060c08201518160060190805190602001906101eb929190610b04565b5060e0820151816007019080519060200190610208929190610b04565b50610100820151816008019080519060200190610226929190610b04565b50610120820151816009019080519060200190610244929190610b04565b5061014082015181600a0160006101000a81548160ff0219169083151502179055505050336001600083815260200190815260200160002060006101000a81548173ffffffffffffffffffffffffffffffffffffffff021916908373ffffffffffffffffffffffffffffffffffffffff1602179055507f10545577c692a22f651e69221c47ad4418e40434b36f4e2411bc54007aa8cbb933826040516102eb9291906110c9565b60405180910390a15050505050505050505050565b3373ffffffffffffffffffffffffffffffffffffffff166001600084815260200190815260200160002060009054906101000a900473ffffffffffffffffffffffffffffffffffffffff1673ffffffffffffffffffffffffffffffffffffffff1614156103de57806000838154811061037c5761037b61137c565b5b90600052602060002090600b0201600a0160006101000a81548160ff0219169083151502179055507fa4f349f92993cc89f62be8c4bead1bd7d76d2e9c4d05da59739c6e0dd75f042c82826040516103d5929190611114565b60405180910390a15b5050565b60606103ee6001610404565b905090565b60606103ff6000610404565b905090565b60606000808054905067ffffffffffffffff811115610426576104256113ab565b5b60405190808252806020026020018201604052801561045f57816020015b61044c610b8a565b8152602001906001900390816104445790505b5090506000805b600080549050811015610a48573373ffffffffffffffffffffffffffffffffffffffff166001600083815260200190815260200160002060009054906101000a900473ffffffffffffffffffffffffffffffffffffffff1673ffffffffffffffffffffffffffffffffffffffff161480156105165750841515600082815481106104f3576104f261137c565b5b90600052602060002090600b0201600a0160009054906101000a900460ff161515145b15610a35576000818154811061052f5761052e61137c565b5b90600052602060002090600b0201604051806101600160405290816000820154815260200160018201805461056390611272565b80601f016020809104026020016040519081016040528092919081815260200182805461058f90611272565b80156105dc5780601f106105b1576101008083540402835291602001916105dc565b820191906000526020600020905b8154815290600101906020018083116105bf57829003601f168201915b50505050508152602001600282015481526020016003820180546105ff90611272565b80601f016020809104026020016040519081016040528092919081815260200182805461062b90611272565b80156106785780601f1061064d57610100808354040283529160200191610678565b820191906000526020600020905b81548152906001019060200180831161065b57829003601f168201915b5050505050815260200160048201805461069190611272565b80601f01602080910402602001604051908101604052809291908181526020018280546106bd90611272565b801561070a5780601f106106df5761010080835404028352916020019161070a565b820191906000526020600020905b8154815290600101906020018083116106ed57829003601f168201915b5050505050815260200160058201805461072390611272565b80601f016020809104026020016040519081016040528092919081815260200182805461074f90611272565b801561079c5780601f106107715761010080835404028352916020019161079c565b820191906000526020600020905b81548152906001019060200180831161077f57829003601f168201915b505050505081526020016006820180546107b590611272565b80601f01602080910402602001604051908101604052809291908181526020018280546107e190611272565b801561082e5780601f106108035761010080835404028352916020019161082e565b820191906000526020600020905b81548152906001019060200180831161081157829003601f168201915b5050505050815260200160078201805461084790611272565b80601f016020809104026020016040519081016040528092919081815260200182805461087390611272565b80156108c05780601f10610895576101008083540402835291602001916108c0565b820191906000526020600020905b8154815290600101906020018083116108a357829003601f168201915b505050505081526020016008820180546108d990611272565b80601f016020809104026020016040519081016040528092919081815260200182805461090590611272565b80156109525780601f1061092757610100808354040283529160200191610952565b820191906000526020600020905b81548152906001019060200180831161093557829003601f168201915b5050505050815260200160098201805461096b90611272565b80601f016020809104026020016040519081016040528092919081815260200182805461099790611272565b80156109e45780601f106109b9576101008083540402835291602001916109e4565b820191906000526020600020905b8154815290600101906020018083116109c757829003601f168201915b50505050508152602001600a820160009054906101000a900460ff161515151581525050838381518110610a1b57610a1a61137c565b5b60200260200101819052508180610a31906112d5565b9250505b8080610a40906112d5565b915050610466565b5060008167ffffffffffffffff811115610a6557610a646113ab565b5b604051908082528060200260200182016040528015610a9e57816020015b610a8b610b8a565b815260200190600190039081610a835790505b50905060005b82811015610af857838181518110610abf57610abe61137c565b5b6020026020010151828281518110610ada57610ad961137c565b5b60200260200101819052508080610af0906112d5565b915050610aa4565b50809350505050919050565b828054610b1090611272565b90600052602060002090601f016020900481019282610b325760008555610b79565b82601f10610b4b57805160ff1916838001178555610b79565b82800160010185558215610b79579182015b82811115610b78578251825591602001919060010190610b5d565b5b509050610b869190610be6565b5090565b604051806101600160405280600081526020016060815260200160008152602001606081526020016060815260200160608152602001606081526020016060815260200160608152602001606081526020016000151581525090565b5b80821115610bff576000816000905550600101610be7565b5090565b6000610c16610c1184611162565b61113d565b905082815260208101848484011115610c3257610c316113df565b5b610c3d848285611230565b509392505050565b600081359050610c54816113ff565b92915050565b600082601f830112610c6f57610c6e6113da565b5b8135610c7f848260208601610c03565b91505092915050565b600081359050610c9781611416565b92915050565b6000806000806000806000806000806101408b8d031215610cc157610cc06113e9565b5b60008b013567ffffffffffffffff811115610cdf57610cde6113e4565b5b610ceb8d828e01610c5a565b9a50506020610cfc8d828e01610c88565b99505060408b013567ffffffffffffffff811115610d1d57610d1c6113e4565b5b610d298d828e01610c5a565b98505060608b013567ffffffffffffffff811115610d4a57610d496113e4565b5b610d568d828e01610c5a565b97505060808b013567ffffffffffffffff811115610d7757610d766113e4565b5b610d838d828e01610c5a565b96505060a08b013567ffffffffffffffff811115610da457610da36113e4565b5b610db08d828e01610c5a565b95505060c08b013567ffffffffffffffff811115610dd157610dd06113e4565b5b610ddd8d828e01610c5a565b94505060e08b013567ffffffffffffffff811115610dfe57610dfd6113e4565b5b610e0a8d828e01610c5a565b9350506101008b013567ffffffffffffffff811115610e2c57610e2b6113e4565b5b610e388d828e01610c5a565b925050610120610e4a8d828e01610c45565b9150509295989b9194979a5092959850565b60008060408385031215610e7357610e726113e9565b5b6000610e8185828601610c88565b9250506020610e9285828601610c45565b9150509250929050565b6000610ea88383610f8b565b905092915050565b610eb9816111e8565b82525050565b6000610eca826111a3565b610ed481856111c6565b935083602082028501610ee685611193565b8060005b85811015610f225784840389528151610f038582610e9c565b9450610f0e836111b9565b925060208a01995050600181019050610eea565b50829750879550505050505092915050565b610f3d816111fa565b82525050565b610f4c816111fa565b82525050565b6000610f5d826111ae565b610f6781856111d7565b9350610f7781856020860161123f565b610f80816113ee565b840191505092915050565b600061016083016000830151610fa460008601826110ab565b5060208301518482036020860152610fbc8282610f52565b9150506040830151610fd160408601826110ab565b5060608301518482036060860152610fe98282610f52565b915050608083015184820360808601526110038282610f52565b91505060a083015184820360a086015261101d8282610f52565b91505060c083015184820360c08601526110378282610f52565b91505060e083015184820360e08601526110518282610f52565b91505061010083015184820361010086015261106d8282610f52565b9150506101208301518482036101208601526110898282610f52565b9150506101408301516110a0610140860182610f34565b508091505092915050565b6110b481611226565b82525050565b6110c381611226565b82525050565b60006040820190506110de6000830185610eb0565b6110eb60208301846110ba565b9392505050565b6000602082019050818103600083015261110c8184610ebf565b905092915050565b600060408201905061112960008301856110ba565b6111366020830184610f43565b9392505050565b6000611147611158565b905061115382826112a4565b919050565b6000604051905090565b600067ffffffffffffffff82111561117d5761117c6113ab565b5b611186826113ee565b9050602081019050919050565b6000819050602082019050919050565b600081519050919050565b600081519050919050565b6000602082019050919050565b600082825260208201905092915050565b600082825260208201905092915050565b60006111f382611206565b9050919050565b60008115159050919050565b600073ffffffffffffffffffffffffffffffffffffffff82169050919050565b6000819050919050565b82818337600083830152505050565b60005b8381101561125d578082015181840152602081019050611242565b8381111561126c576000848401525b50505050565b6000600282049050600182168061128a57607f821691505b6020821081141561129e5761129d61134d565b5b50919050565b6112ad826113ee565b810181811067ffffffffffffffff821117156112cc576112cb6113ab565b5b80604052505050565b60006112e082611226565b91507fffffffffffffffffffffffffffffffffffffffffffffffffffffffffffffffff8214156113135761131261131e565b5b600182019050919050565b7f4e487b7100000000000000000000000000000000000000000000000000000000600052601160045260246000fd5b7f4e487b7100000000000000000000000000000000000000000000000000000000600052602260045260246000fd5b7f4e487b7100000000000000000000000000000000000000000000000000000000600052603260045260246000fd5b7f4e487b7100000000000000000000000000000000000000000000000000000000600052604160045260246000fd5b600080fd5b600080fd5b600080fd5b600080fd5b6000601f19601f8301169050919050565b611408816111fa565b811461141357600080fd5b50565b61141f81611226565b811461142a57600080fd5b5056fea2646970667358221220a628149070d815ab8660422f2332285076846258c4196dd1e917e52313a9cbc564736f6c63430008070033",
  "deployedBytecode": "608060405234801561001057600080fd5b50611463806100206000396000f3fe608060405234801561001057600080fd5b506004361061004c5760003560e01c80632d667aae146100515780636aa835a81461006d57806376d9e5a014610089578063f2bc01ff146100a7575b600080fd5b61006b60048036038101906100669190610c9d565b6100c5565b005b61008760048036038101906100829190610e5c565b610300565b005b6100916103e2565b60405161009e91906110f2565b60405180910390f35b6100af6103f3565b6040516100bc91906110f2565b60405180910390f35b60008080549050905060006040518061016001604052808381526020018d81526020018c81526020018b81526020018a815260200189815260200188815260200187815260200186815260200185815260200184151581525090806001815401808255809150506001900390600052602060002090600b020160009091909190915060008201518160000155602082015181600101908051906020019061016d929190610b04565b50604082015181600201556060820151816003019080519060200190610194929190610b04565b5060808201518160040190805190602001906101b1929190610b04565b5060a08201518160050190805190602001906101ce929190610b04565b5060c08201518160060190805190602001906101eb929190610b04565b5060e0820151816007019080519060200190610208929190610b04565b50610100820151816008019080519060200190610226929190610b04565b50610120820151816009019080519060200190610244929190610b04565b5061014082015181600a0160006101000a81548160ff0219169083151502179055505050336001600083815260200190815260200160002060006101000a81548173ffffffffffffffffffffffffffffffffffffffff021916908373ffffffffffffffffffffffffffffffffffffffff1602179055507f10545577c692a22f651e69221c47ad4418e40434b36f4e2411bc54007aa8cbb933826040516102eb9291906110c9565b60405180910390a15050505050505050505050565b3373ffffffffffffffffffffffffffffffffffffffff166001600084815260200190815260200160002060009054906101000a900473ffffffffffffffffffffffffffffffffffffffff1673ffffffffffffffffffffffffffffffffffffffff1614156103de57806000838154811061037c5761037b61137c565b5b90600052602060002090600b0201600a0160006101000a81548160ff0219169083151502179055507fa4f349f92993cc89f62be8c4bead1bd7d76d2e9c4d05da59739c6e0dd75f042c82826040516103d5929190611114565b60405180910390a15b5050565b60606103ee6001610404565b905090565b60606103ff6000610404565b905090565b60606000808054905067ffffffffffffffff811115610426576104256113ab565b5b60405190808252806020026020018201604052801561045f57816020015b61044c610b8a565b8152602001906001900390816104445790505b5090506000805b600080549050811015610a48573373ffffffffffffffffffffffffffffffffffffffff166001600083815260200190815260200160002060009054906101000a900473ffffffffffffffffffffffffffffffffffffffff1673ffffffffffffffffffffffffffffffffffffffff161480156105165750841515600082815481106104f3576104f261137c565b5b90600052602060002090600b0201600a0160009054906101000a900460ff161515145b15610a35576000818154811061052f5761052e61137c565b5b90600052602060002090600b0201604051806101600160405290816000820154815260200160018201805461056390611272565b80601f016020809104026020016040519081016040528092919081815260200182805461058f90611272565b80156105dc5780601f106105b1576101008083540402835291602001916105dc565b820191906000526020600020905b8154815290600101906020018083116105bf57829003601f168201915b50505050508152602001600282015481526020016003820180546105ff90611272565b80601f016020809104026020016040519081016040528092919081815260200182805461062b90611272565b80156106785780601f1061064d57610100808354040283529160200191610678565b820191906000526020600020905b81548152906001019060200180831161065b57829003601f168201915b5050505050815260200160048201805461069190611272565b80601f01602080910402602001604051908101604052809291908181526020018280546106bd90611272565b801561070a5780601f106106df5761010080835404028352916020019161070a565b820191906000526020600020905b8154815290600101906020018083116106ed57829003601f168201915b5050505050815260200160058201805461072390611272565b80601f016020809104026020016040519081016040528092919081815260200182805461074f90611272565b801561079c5780601f106107715761010080835404028352916020019161079c565b820191906000526020600020905b81548152906001019060200180831161077f57829003601f168201915b505050505081526020016006820180546107b590611272565b80601f01602080910402602001604051908101604052809291908181526020018280546107e190611272565b801561082e5780601f106108035761010080835404028352916020019161082e565b820191906000526020600020905b81548152906001019060200180831161081157829003601f168201915b5050505050815260200160078201805461084790611272565b80601f016020809104026020016040519081016040528092919081815260200182805461087390611272565b80156108c05780601f10610895576101008083540402835291602001916108c0565b820191906000526020600020905b8154815290600101906020018083116108a357829003601f168201915b505050505081526020016008820180546108d990611272565b80601f016020809104026020016040519081016040528092919081815260200182805461090590611272565b80156109525780601f1061092757610100808354040283529160200191610952565b820191906000526020600020905b81548152906001019060200180831161093557829003601f168201915b5050505050815260200160098201805461096b90611272565b80601f016020809104026020016040519081016040528092919081815260200182805461099790611272565b80156109e45780601f106109b9576101008083540402835291602001916109e4565b820191906000526020600020905b8154815290600101906020018083116109c757829003601f168201915b50505050508152602001600a820160009054906101000a900460ff161515151581525050838381518110610a1b57610a1a61137c565b5b60200260200101819052508180610a31906112d5565b9250505b8080610a40906112d5565b915050610466565b5060008167ffffffffffffffff811115610a6557610a646113ab565b5b604051908082528060200260200182016040528015610a9e57816020015b610a8b610b8a565b815260200190600190039081610a835790505b50905060005b82811015610af857838181518110610abf57610abe61137c565b5b6020026020010151828281518110610ada57610ad961137c565b5b60200260200101819052508080610af0906112d5565b915050610aa4565b50809350505050919050565b828054610b1090611272565b90600052602060002090601f016020900481019282610b325760008555610b79565b82601f10610b4b57805160ff1916838001178555610b79565b82800160010185558215610b79579182015b82811115610b78578251825591602001919060010190610b5d565b5b509050610b869190610be6565b5090565b604051806101600160405280600081526020016060815260200160008152602001606081526020016060815260200160608152602001606081526020016060815260200160608152602001606081526020016000151581525090565b5b80821115610bff576000816000905550600101610be7565b5090565b6000610c16610c1184611162565b61113d565b905082815260208101848484011115610c3257610c316113df565b5b610c3d848285611230565b509392505050565b600081359050610c54816113ff565b92915050565b600082601f830112610c6f57610c6e6113da565b5b8135610c7f848260208601610c03565b91505092915050565b600081359050610c9781611416565b92915050565b6000806000806000806000806000806101408b8d031215610cc157610cc06113e9565b5b60008b013567ffffffffffffffff811115610cdf57610cde6113e4565b5b610ceb8d828e01610c5a565b9a50506020610cfc8d828e01610c88565b99505060408b013567ffffffffffffffff811115610d1d57610d1c6113e4565b5b610d298d828e01610c5a565b98505060608b013567ffffffffffffffff811115610d4a57610d496113e4565b5b610d568d828e01610c5a565b97505060808b013567ffffffffffffffff811115610d7757610d766113e4565b5b610d838d828e01610c5a565b96505060a08b013567ffffffffffffffff811115610da457610da36113e4565b5b610db08d828e01610c5a565b95505060c08b013567ffffffffffffffff811115610dd157610dd06113e4565b5b610ddd8d828e01610c5a565b94505060e08b013567ffffffffffffffff811115610dfe57610dfd6113e4565b5b610e0a8d828e01610c5a565b9350506101008b013567ffffffffffffffff811115610e2c57610e2b6113e4565b5b610e388d828e01610c5a565b925050610120610e4a8d828e01610c45565b9150509295989b9194979a5092959850565b60008060408385031215610e7357610e726113e9565b5b6000610e8185828601610c88565b9250506020610e9285828601610c45565b9150509250929050565b6000610ea88383610f8b565b905092915050565b610eb9816111e8565b82525050565b6000610eca826111a3565b610ed481856111c6565b935083602082028501610ee685611193565b8060005b85811015610f225784840389528151610f038582610e9c565b9450610f0e836111b9565b925060208a01995050600181019050610eea565b50829750879550505050505092915050565b610f3d816111fa565b82525050565b610f4c816111fa565b82525050565b6000610f5d826111ae565b610f6781856111d7565b9350610f7781856020860161123f565b610f80816113ee565b840191505092915050565b600061016083016000830151610fa460008601826110ab565b5060208301518482036020860152610fbc8282610f52565b9150506040830151610fd160408601826110ab565b5060608301518482036060860152610fe98282610f52565b915050608083015184820360808601526110038282610f52565b91505060a083015184820360a086015261101d8282610f52565b91505060c083015184820360c08601526110378282610f52565b91505060e083015184820360e08601526110518282610f52565b91505061010083015184820361010086015261106d8282610f52565b9150506101208301518482036101208601526110898282610f52565b9150506101408301516110a0610140860182610f34565b508091505092915050565b6110b481611226565b82525050565b6110c381611226565b82525050565b60006040820190506110de6000830185610eb0565b6110eb60208301846110ba565b9392505050565b6000602082019050818103600083015261110c8184610ebf565b905092915050565b600060408201905061112960008301856110ba565b6111366020830184610f43565b9392505050565b6000611147611158565b905061115382826112a4565b919050565b6000604051905090565b600067ffffffffffffffff82111561117d5761117c6113ab565b5b611186826113ee565b9050602081019050919050565b6000819050602082019050919050565b600081519050919050565b600081519050919050565b6000602082019050919050565b600082825260208201905092915050565b600082825260208201905092915050565b60006111f382611206565b9050919050565b60008115159050919050565b600073ffffffffffffffffffffffffffffffffffffffff82169050919050565b6000819050919050565b82818337600083830152505050565b60005b8381101561125d578082015181840152602081019050611242565b8381111561126c576000848401525b50505050565b6000600282049050600182168061128a57607f821691505b6020821081141561129e5761129d61134d565b5b50919050565b6112ad826113ee565b810181811067ffffffffffffffff821117156112cc576112cb6113ab565b5b80604052505050565b60006112e082611226565b91507fffffffffffffffffffffffffffffffffffffffffffffffffffffffffffffffff8214156113135761131261131e565b5b600182019050919050565b7f4e487b7100000000000000000000000000000000000000000000000000000000600052601160045260246000fd5b7f4e487b7100000000000000000000000000000000000000000000000000000000600052602260045260246000fd5b7f4e487b7100000000000000000000000000000000000000000000000000000000600052603260045260246000fd5b7f4e487b7100000000000000000000000000000000000000000000000000000000600052604160045260246000fd5b600080fd5b600080fd5b600080fd5b600080fd5b6000601f19601f8301169050919050565b611408816111fa565b811461141357600080fd5b50565b61141f81611226565b811461142a57600080fd5b5056fea26469706673582212206c92ded6958a64805627c64fc993a628a7900f05771ca7e73f81990cf5d36ed364736f6c63430008070033",
  "linkReferences": {},
  "deployedLinkReferences": {}
}